:020000040800F2
:10000000582600209D010008FF330008052C000839
:10001000FD3300082B03000899540008000000007D
:100020000000000000000000000000005937000838
:100030007503000800000000A5340008B937000867
:10004000B7010008B7010008B7010008B7010008B0
:10005000B7010008B7010008B7010008B7010008A0
:10006000B7010008B7010008B7010008B701000890
:10007000B7010008B7010008B7010008B701000880
:10008000B7010008B7010008B7010008B701000870
:10009000B7010008B7010008B7010008B701000860
:1000A000B7010008B7010008B7010008B701000850
:1000B000B7010008B7010008B7010008092C0008C3
:1000C000B7010008152C0008B7010008B7010008A7
:1000D000B7010008C53D0008D13D0008DD3D00081E
:1000E000B7010008B7010008B7010008B701000810
:1000F000B7010008B7010008B7010008B701000800
:10010000B7010008B7010008B7010008B7010008EF
:10011000B5380008C1380008B7010008B701000869
:10012000B7010008B7010008B7010008B7010008CF
:10013000B7010008B7010008B7010008B7010008BF
:10014000B7010008B7010008B70100080134000832
:10015000B7010008B7010008B7010008B70100089F
:10016000B7010008B7010008B7010008B70100088F
:10017000B7010008B7010008B7010008000000003F
:10018000B7010008B7010008DFF80CD000F090F8C4
:100190000048004729550008582600200648804797
:1001A00006480047FEE7FEE7FEE7FEE7FEE7FEE75C
:1001B000FEE7FEE7FEE7FEE7713800088901000868
:1001C0002DE9F05F0546002092469B46884606468C
:1001D000814640241BE0284641464746224600F01F
:1001E00056F853465A46C01A914110D31146184644
:1001F000224600F03DF82D1A67EB01084F462246D3
:100200000120002100F034F817EB00094E41201EB8
:10021000A4F10104DFDC484631462A46434600F09B
:1002200000B830BCBDE8C09F40EA01039B0703D083
:1002300009E008C9121F08C0042AFAD203E011F825
:10024000013B00F8013B521EF9D27047D2B201E0E7
:1002500000F8012B491EFBD270470022F6E710B5CB
:1002600013460A4604461946FFF7F0FF204610BD24
:10027000202A04DB203A00FA02F100207047914066
:10028000C2F1200320FA03F3194390407047202A5B
:1002900004DB203A21FA02F00021704721FA02F330
:1002A000D040C2F120029140084319467047000037
:1002B000064C074D06E0E06840F0010394E80700B3
:1002C00098471034AC42F6D3FFF762FF245600087B
:1002D0004456000870B58C1810F8015B15F0070340
:1002E00001D110F8013B2A1106D110F8012B03E0CF
:1002F00010F8016B01F8016B5B1EF9D12B0705D4D7
:100300000023521E0DD401F8013BFAE710F8013B1F
:10031000CB1A921C03E013F8015B01F8015B521E3B
:10032000F9D5A142D8D3002070BDFEE70020704768
:100330000020704710B500220449054803F05AFE1A
:100340000449034803F050FE002010BD2C12002089
:100350005C0500202C0A002010B50146034803F07C
:1003600043FE024803F025FE002010BD5C0500207E
:1003700000207047704770472DE9F047044690F819
:1003800050009AB00D464FF00008012813D001200C
:1003900084F85000304E20684FF00009B0420ED172
:1003A0002E4F0097384602F073FD8246206802F017
:1003B0006FFD60B10EE002201AB0BDE8F087616DFC
:1003C00041F02001616584F850900120F4E7BAF112
:1003D000000F09D0606D40F0200060654FF001080B
:1003E00084F850904046E7E71D4829681D4A0029D7
:1003F000816840F61F7321F460411BD094F830C02F
:1004000041EA4C31D5F804C041EA0C018160B16881
:10041000BE6801F0010106F001069268314302F066
:1004200001021143DCD1AA682968114382689A430A
:1004300011430EE08160B168BD6801F0010105F073
:1004400001059268294302F001021143C8D1816875
:1004500099438160C4E7000000000450000104508B
:1004600000030450000204502DE9F84F0027044611
:10047000009790F85000DFF8B8930D46B846012871
:1004800011D0012684F85060206802F0FDFC60B1B4
:10049000606D40F0200060655FF0010784F85080D7
:1004A000384600F0DDB90220FBE768680C23052818
:1004B00012D8022807D0032807D0042807D005281F
:1004C00007D0062007E06B6006E0122003E018204A
:1004D00001E04FF480706860D5E90021206803EAEC
:1004E00091131844036B01F01F014FF01F0C0CFA1D
:1004F00001FCC2F3846223EA0C038A4013430363C2
:10050000206802F0C1FC8246206802F0B9FC5AEA79
:1005100000001DD1AA682968206802F0BDFC20688F
:100520006969C268C2F3C102520091402A69042A73
:100530000FD000EB82002B68026EDFF8F8C203F0E8
:10054000F84302EA0C020B431A4342F000410166F1
:1005500072E0002102F08EFC400320684FF00001A1
:1005600072D002F087FC90FAA0F0B0FA80F128680F
:1005700042036ED090FAA0F0B0FA80F0814204D12C
:1005800000221146206802F096FC0121206802F04A
:1005900071FC400320684FF001015DD002F06AFC5D
:1005A00090FAA0F0B0FA80F12868420359D090FA8E
:1005B000A0F0B0FA80F0814204D10022012120682D
:1005C00002F079FC0221206802F054FC400320680C
:1005D0004FF0020148D002F04DFC90FAA0F0B0FAC2
:1005E00080F12868420344D090FAA0F0B0FA80F07D
:1005F000814204D100220221206802F05CFC032128
:10060000206802F037FC400320684FF0030133D02C
:1006100002F030FC90FAA0F0B0FA80F128684203B2
:100620002FD090FAA0F0B0FA80F0814204D10022DD
:100630000321206802F03FFC2068816811F0010F5F
:1006400022D0ACE000E004E002F014FCC0F38461CE
:100650008DE7C0F3846091E702F00CFCC0F3846185
:10066000A2E7C0F38460A6E702F004FCC0F3846153
:10067000B7E7C0F38460BBE702F0FCFBC0F3846122
:10068000CCE7C0F38460D0E72A7B296850F8B03FFC
:10069000C1F3120C23EA0C0302F0180C664A22FA8A
:1006A0000CF20A4013430360E968494577D1286892
:1006B00041031CD090FAA0F1B1FA81F1491C01F07C
:1006C0001F0109294FEA403132D8002912D000BF5A
:1006D00090FAA0F1B1FA81F101F1010101F01F01DD
:1006E00006FA01F609D100BFC0F3846109E0C0F346
:1006F0008461E3E7C0F38461EEE790FAA0F1B1FA18
:1007000081F101F1010101F01F0146EA816102D18D
:10071000C0F3846003E090FAA0F0B0FA80F000F13A
:10072000010000F01F0000EB400041EA005132E000
:1007300000290ED090FAA0F1B1FA81F101F1010186
:1007400001F01F0106FA01F606D100BFC0F3846173
:1007500006E0C0F38461F1E790FAA0F1B1FA81F10B
:1007600001F1010101F01F0146EA816102D1C0F3EC
:10077000846003E090FAA0F0B0FA80F000F101008C
:1007800000F01F002D4A00EB400002EB005041EA50
:10079000000141F00071AA68206802F07DFB284842
:1007A0002A6802423FF47AAE26488168264E274BDB
:1007B000274D01F0E071B2421CD10E021AD422681A
:1007C0009A4202D0AA427FF469AE826841F40001E5
:1007D00022F0E0720A4382601E481F490068B0FBA5
:1007E000F1F000EB4000800000E0401E0090002887
:1007F000FBD153E6194EB24209D1CE0107D422688B
:100800009A4201D0AA42F4D141F080710AE06FF01F
:100810000045EA42EDD14A02EBD422689A42E8D17F
:1008200041F48001826822F0E0720A43826035E67A
:1008300000007F4000F0FF03FFFF0700000020FEE4
:100840000000088000030450000052C7000004505C
:100850000002045070000020400D0300000084CB13
:1008600018BCBDE8E08F0000F8B54FF000050400AB
:100870002E46009502D0606D10B107E00120F8BD52
:10088000204600F0D5F8A66584F85060206881689D
:10089000C1F3407119B181685B4A114081602068E1
:1008A0008168C1F3007179B98168584A114041F0FB
:1008B00080518160564857490068B0FBF1F000E074
:1008C000401E00900028FBD120688168C1F30071B0
:1008D00041B9616D41F010016165A16D41F0010107
:1008E000A165012502F0D0FA616DC90600D430B1CE
:1008F000606D40F01000606501252846F8BD606D10
:1009000020F4807040F0020060652068806810F07C
:10091000010F15D140488068404900F00100896806
:1009200001F0010108433E49896801F001010843D3
:1009300006D13C4960688A6822F47C1202438A60CE
:10094000E168606B627E0843A16841EA4231084376
:1009500094F8201040EA0140012904D1A18C324AC8
:1009600002EB41410843A16A29B101F47071E26AC6
:10097000014342EA01002268D1682C4B194001432F
:10098000D160206802F080FA0646206802F078FA0A
:10099000304315D1207E94F830102268800340EA5D
:1009A0004101D06844F2020398430843D06094F8B0
:1009B000380001280CD02068016921F00101016193
:1009C000206901282068016B21F00F0111D013E08C
:1009D000D4E90F010843D4E91112114308432168F7
:1009E0000A6940F2FC739A43104340F00100086129
:1009F000E6E7E269521E11430163606D20F00200D8
:100A000040F00100606578E7C0FFFF5FC0FFFF7F37
:100A100070000020400D030000000450000104504D
:100A200000020450000304500000FEFF07C0F0FF66
:100A300010B586B0044614216846FFF70EFC104935
:100A4000206888421AD10F48C16C41F40051C1643A
:100A5000C16C01F400510591C16C41F00401C16405
:100A6000C06C694600F004000590022000900B2045
:100A7000019000200290044800F042F806B010BD3A
:100A800000000450001002400008004810B590F823
:100A900025100024022903D00421C16301241AE097
:100AA00001680A6822F00E020A6001680A6822F0F2
:100AB00001020A6090F84410036C01F01C0201214D
:100AC00001FA02F25A6080F82510002180F8241003
:100AD000816B01B18847204610BD000070B5044607
:100AE00000F046F90546601C02D004480078044432
:100AF00000F03EF9401BA042FAD370BD6400002014
:100B00002DE9F04FDFF83492002309F1040A0124A3
:100B100003250AF1040B87B00F270BF1040E04E143
:100B200004FA03F632407CD0D1F804C0BCF1010FC6
:100B300008D0BCF1020F05D0BCF1110F02D0BCF1FE
:100B4000120F29D1D0F808C0CDF800C04FEA430CED
:100B500005FA0CF8CDF80CC0DDF800C02CEA080C42
:100B6000CDF800C0D1F80C80DDF80CC008FA0CF804
:100B7000DDF800C048EA0C08C0F80880D0F804800E
:100B800091F804C028EA0608CCF3001C0CFA03FC18
:100B90004CEA080CC0F804C0D1F804806FEA080CD5
:100BA0005FEA8C7C09D1D0F82CC02CEA060CC8F383
:100BB000C0069E4046EA0C06C662D0F80CC04FEA5A
:100BC000430805FA08F62CEA060CCDF814800296C4
:100BD0008E6806FA08F646EA0C06C6604E68022ED3
:100BE00001D0122E15D1DE0800EB86060396366A78
:100BF0004FEA437C4FEADC6807FA08FC26EA0C0659
:100C0000D1F810C00CFA08FC4CEA060C039EC6F89A
:100C100020C00668DDF808C026EA0C0691F804C07A
:100C200000E081E0DDF814800CF0030C0CFA08FC05
:100C30004CEA060CC0F800C04E68F60074D5404E71
:100C4000D6F860C04CF0010CC6F860C0366E23F0D8
:100C5000030C06F0010600963A4E66440296D6F85A
:100C600008C09E074FEA167807FA08F62CEA060C29
:100C7000B0F1904F04D0344EB04203D101261BE0B6
:100C8000002619E0314EB04201D1022614E0304E68
:100C9000B04201D103260FE02E4EB04201D104260E
:100CA0000AE02D4EB04201D1052605E02B4EB042A0
:100CB00001D1062600E0072606FA08F646EA0C06E9
:100CC000DDF808C0CCF80860D9F80060CC46D1F84F
:100CD000048096435FEAC83800D51643CCF800601C
:100CE000DAF80060D446D1F8048096435FEA883889
:100CF00000D51643CCF80060DBF80060DC46D1F884
:100D0000048096435FEAC82800D51643CCF80060FB
:100D1000DEF80060F446D1F8048096435FEA882844
:100D200000D51643CCF800605B1C0A6832FA03F663
:100D30007FF4F6AE07B000F013B8000000040140E5
:100D40000010024000000140000400480008004874
:100D5000000C00480010004800140048001800482B
:100D600030BCBDE8C08F0AB18161704781627047B5
:100D700001488068704700006400002090F841201E
:100D8000202A24D190F84020012A20D0012280F886
:100D90004020242280F841200268136823F00103D8
:100DA00013600268136823F48053136002681368A9
:100DB0000B43136001680A6842F001020A602021B7
:100DC00080F84110002180F840100846704702204A
:100DD000704790F84120202A22D190F84020012A23
:100DE0001ED0012280F84020242280F84120026891
:100DF000136823F0010313600268136823F470631F
:100E000043EA0121116001680A6842F001020A60A8
:100E1000202180F84110002180F8401008467047DA
:100E200002207047026891691268436B002B00D062
:100E30001847704770B5040004D094F841000025AD
:100E400010B106E0012070BD84F84050204600F04B
:100E5000E3F8242084F841002068016821F00101B2
:100E600001606068216820F0706008612068816816
:100E700021F400418160E0680128A06807D040F4B7
:100E8000044021688860E068022803D006E040F44E
:100E90000040F6E721684FF4006048602068416830
:100EA000114A114341602068C16821F40041C160CA
:100EB000D4E904010843A16940EA01202168C8601F
:100EC000D4E907010843216808602068016841F0FF
:100ED000010101606564202084F84100256384F8E5
:100EE0004250002070BD0000008000022DE9F84F44
:100EF000044690F84100DDF828A01F4690468B4636
:100F000020287ED194F8400001287AD0012084F86E
:100F10004000FFF72DFF0646012200901923D10360
:100F2000204601F0E7FEE0BB212084F841001020BC
:100F300084F8420000256564C4F8248067856563F1
:100F4000618D3148FF274FF080784FF00079FF29FD
:100F500003D927853A46009039E0618D21850090BC
:100F60003AE05946204601F0AFFE13E001F014FFCD
:100F7000B8B9606A216800788862606A401C606263
:100F8000608D401E6085208D401E80B22085618D61
:100F900001B168B1608D3246002851462046E5D146
:100FA00000E002E001F0D2FED0B1012000F030B844
:100FB0005346002280212046009601F09BFE002827
:100FC000F3D1608DFF2804D927853A460095434622
:100FD000C7E7608D2085009594F828204B46C0E730
:100FE00021682020C86121684A68084B1A404A607D
:100FF00084F8410084F8425084F840500020D5E73E
:10100000FFE70220D2E700000020008000E800FE99
:1010100018BCBDE8E08F0000F0B587B0044614218D
:101020006846FFF71AF9274F2668274C122101223C
:10103000032304252548BE421ED1E66C46F0020675
:10104000E664E66C01AF06F002060596C02600963F
:1010500087E82E006946FFF753FDA06D40F40010AD
:10106000A065A06D002200F40010059011461F201D
:1010700000F08EF81F2021E0154FBE4220D1E66C13
:1010800046F00206E664E66C01AF06F0020605963D
:101090004FF44066009687E82E006946FFF730FD62
:1010A000A06D40F48000A065A06D002200F48000D7
:1010B00005901146212000F06BF8212000F05AF82D
:1010C00007B0F0BD0054004000100240000400488A
:1010D00000580040024881680278114481607047DE
:1010E0006400002010B50024032000F071F80020F7
:1010F00000F008F808B1012401E000F025F82046CE
:1011000010BD000070B50E4E05460024307898B131
:101110004FF47A71B1FBF0F00A490968B1FBF0F0C5
:1011200001F03EFB40B9102D06D200222946501E88
:1011300000F02EF8756000E00124204670BD00002C
:101140006400002070000020094808B5016E41F0DD
:1011500001010166016E01F001010091816D41F014
:1011600080518165806D00F08050009008BD0000C6
:1011700000100240002809DB00F01F02012191400D
:101180004009800000F1E020C0F800117047000025
:10119000F0B40E4B1B680C46C3F30223C3F10705E2
:1011A000042D00D90425191D072901D2002300E0D0
:1011B000DB1E012606FA05F1491E214099409E409A
:1011C000761E16403143F0BC04F067B90CED00E028
:1011D000064900F0070208684FF6FF03184040EA8E
:1011E0000220034A10430860704700000CED00E045
:1011F0000000FA0501220168C0F8FC23002280F8F3
:10120000F423886940F000608861486D024A104309
:1012100048650020704700000300001070B5164DAF
:101220000446A1B1012911D12068D0F8001E41F077
:101230000101C0F8001ED4F8040403F076FA206A15
:10124000002803D0286840F00600286070BD206A9E
:1012500028B102F0B3FA286820F006002860206860
:10126000D0F8001E21F00101C0F8001ED4F80404DB
:10127000BDE8704003F0E0B910ED00E000684162A5
:1012800000207047F0B50368586A39B19C6A4FF482
:10129000827600EB144400204D1E0AE040EA024032
:1012A00098620FE006EB8007DF59401C04EB1744FF
:1012B000C0B2A842F6D344EA02404FF4807202EB77
:1012C000810158500020F0BDD0F8040403F012B999
:1012D000C1EBC10200EB8202D0F80404926C03F06F
:1012E0007DB8C1EBC10200EB8202D0F80404D2F851
:1012F000082203F0C8B8D0F8040403F0FDB870B5B4
:1013000004460B0601F00F00C0EBC00104EB8101A5
:101310004FF001024FF0000503D581F83D203C312C
:1013200003E081F8FD5101F5FE71087094F8BC03EB
:10133000012808D084F8BC23206803F08FFC84F8CF
:10134000BC53002070BD022070BD70B5044601F092
:101350000F006268904201D9012070BD0B0601F0B8
:101360000F01C1EBC10104EB81014FF001024FF00D
:10137000000503D581F83D203C3103E081F8FD51A3
:1013800001F5FE718D70087094F8BC03012808D037
:1013900084F8BC23206803F02FFE84F8BC5300209F
:1013A00070BD022070BD01F00F01C1EBC10100EB67
:1013B0008100D0F8140270472DE9F04104460F0671
:1013C00001F00F00C0EBC00104EB81014FF00106FA
:1013D0004FF0000503D581F83D603C3103E081F812
:1013E000FD5101F5FE7108708A60CB704A7802B138
:1013F000C880022B00D10D7194F8BC03012809D0DC
:1014000084F8BC63206803F08FFB284684F8BC5343
:10141000BDE8F0810220FBE770B50C4601F00F0536
:10142000C5EBC50100EB8101C1F808220022C1E92A
:10143000843281F8FD2181F8FC51006801F5FE71CC
:10144000220703D003F030FE002070BD03F03CFD06
:10145000FAE770B504460D4601F00F006168884256
:1014600001D9012070BD29064FF000064FF001029E
:1014700007D5C0EBC00104EB810181F83D203C3170
:1014800007E0C5EBC50104EB810181F8FD6101F5C1
:10149000FE718A70087094F8BC03012807D084F8A4
:1014A000BC23206803F0D4FD280702D006E0022008
:1014B00070BD04F57171206803F07CFD84F8BC6395
:1014C000002070BD70B50C4601F00F05C5EBC501DD
:1014D00000EB81018A640022C1E91432012281F803
:1014E0003D2001F83C5F0068220703D003F0DCFDDB
:1014F000002070BD03F0E8FCFAE700002DE9F84F8A
:1015000005680446284603F0CDFE002879D12068FE
:1015100003F0F4FE002874D0206803F0EFFE80078B
:1015200004D52168486900F002004861206803F092
:10153000E5FEC10604F57170009034D5206881691C
:1015400021F0100181612F6A07F00F00C0EBC0008D
:1015500004EB8006C7F3434006F5FE76022802D06E
:10156000062811D01AE047F6F0710F4216D0C7F3E3
:101570000A173A462846F16803F0C4FEF06838447A
:10158000F060B069384408E008222846009903F06A
:10159000B9FEB169C7F30A100844B06120688169D7
:1015A00041F010018161206803F0A8FE00034FF0B4
:1015B00001094FF0080A4FF0100B61D50026206892
:1015C00003F07BFE074659E0F80755D0F1B22068DA
:1015D00003F08CFE8046C0071DD005EB4611C1F814
:1015E000089B2068016C00EB4610D0F8082BD74B05
:1015F00099420CD1110405D54FF40041C0F8081BE5
:1016000009E0A0E1910602D52021C0F8081BF1B243
:101610002046FFF766FE5FEA087015D505EB461118
:10162000C1F808AB2068016C00EB4610D0F8082B1D
:10163000C74B994205D9110403D54FF40041C0F8B6
:10164000081B204600F09AFA5FEAC86003D505EB54
:101650004611C1F808BB5FEA886004D505EB461166
:101660002020C1F8080B5FEA884005D505EB46103D
:101670004FF40051C0F8081B7F08761C002FA3D13F
:10168000206803F03BFE400348D5206803F00EFEBF
:101690000746002640E0F8073CD0F1B2206803F08E
:1016A00013FE8046C00710D006F00F0109FA01F0C2
:1016B000D5F834188143C5F8341805EB4610C0F846
:1016C0000899F1B22046FFF703FE5FEA087003D5E0
:1016D00005EB4611C1F808A95FEAC86003D505EB20
:1016E0004611C1F808B95FEA486004D505EB461118
:1016F0004020C1F808095FEA887004D505EB46115F
:101700000220C1F808095FEA086003D53146204687
:1017100001F07CFE7F08761C002FBCD1206803F00E
:10172000EDFD002811DAD5F8040820F00100C5F815
:10173000040894F8F403012839D0204600F0ECF9AD
:101740002068416901F000414161206803F0D6FD45
:1017500000050BD5D5F80808C00702D0204600F0D8
:1017600033FA2068416901F400614161206803F0A7
:10177000C5FD00010AD52068416901F000614161A1
:1017800094F8F403D8B1204600F01EFA206803F064
:10179000B5FDC00475D5D5F8040820F00100C5F8E2
:1017A00004081021206803F05FFD002135E00020CF
:1017B00084F8F40301462046FFF730FDC0E784F8C3
:1017C000F4932068406D0121C0F38300C4F8F8034E
:1017D0002046FFF723FDD9E705EB41104FF67F3296
:1017E000C0F80829D0F8003923F40013C0F80039F4
:1017F000D0F8003943F00063C0F80039C0F8082B76
:10180000D0F8002B22F40012C0F8002BD0F8002BE7
:1018100042F00062C0F8002B491C60688842DBD8A7
:10182000D5F81C0840F00110C5F81C08206B60B109
:10183000D5F8840840F00B00C5F88408D5F84408B2
:1018400040F00B00C5F844080CE0D5F8140842F24B
:101850002B010843C5F81408D5F8100840F00B0018
:10186000C5F81008D5F8000820F4FE60C5F8000897
:101870002068009903F09EFB2068416901F48051C3
:101880004161206803F03AFD800416D5206803F01A
:101890008BF9206803F0FAFCE06000F071FC23682B
:1018A0000146227B184603F063FD204600F020F934
:1018B0002068416901F400514161206803F01EFD78
:1018C000000707D5204600F041F92068416901F082
:1018D00008014161206803F011FDC00208D5002114
:1018E000204600F03AF82068416901F48011416116
:1018F000206803F003FD800208D50021204600F097
:1019000030F82068416901F400114161206803F05A
:10191000F5FC400007D52046FFF7D6FC206841695A
:1019200001F080414161206803F0E8FC40070AD5DE
:1019300020684568680702D52046FFF7DCFC206870
:1019400041682943416000F005B800000A31544F56
:101950000A30544F18BCBDE8E08FD0F8040402F000
:101960001BBED0F8040402F019BE2DE9F0418AB084
:10197000040005D094F8BD032668002520B108E0D6
:1019800001200AB0BDE8F08184F8BC53204600F085
:1019900063F8032084F8BD03F06BC00500D4256113
:1019A000206803F08AFA04F110012822884668466C
:1019B000FEF73AFC94E80F0003F004F90226C8BBD6
:1019C0000021206803F0ACFC002001270EE0C0EBF2
:1019D000C00104EB810181F83D7001F83C0FC88023
:1019E000CD708D60CD60401CC0B24D616168814298
:1019F000EDD8002011E0C0EBC00104EB810181F8BB
:101A0000FD5181F8FC0181F8FF51C1F80452C1F881
:101A10000852401CC0B2C1F8105261688142EAD835
:101A2000282241466846FEF7FFFB94E80F0003F0CA
:101A300097F910B184F8BD63A2E784F8385084F8B0
:101A4000BD73606A012802D12046FFF7D3FB2068EE
:101A500003F078F9002094E710B586B0044614210D
:101A60006846FEF7FAFB2068B0F1A04F3CD11F4C4E
:101A7000E06C40F00100E064E06C694600F00100B9
:101A800005904FF4C0500090022001900020029079
:101A9000032003900A2004904FF09040FFF730F8A5
:101AA000E06C40F48050E064E06C00F480500590FD
:101AB000A06DC0000ED4A06D40F08050A065A06D58
:101AC00000F08050059000F0D3F8A06D20F0805019
:101AD000A06501E000F0CCF8002211464320FFF79A
:101AE00057FB4320FFF746FB06B010BD0010024035
:101AF00070B50446C0680125022801D0FEF73BFC02
:101B00002946D4F8040402F0ADFDD4F80404BDE87D
:101B1000704002F068BD000010B504460068D0F8BF
:101B2000001E21F00101C0F8001E206A30B10648F5
:101B3000016821F00601016001F040FED4F80404C0
:101B4000BDE8104002F078BD10ED00E0D0F80404CC
:101B500002F07CBD10B5044690F8BC0301280BD000
:101B6000012084F8BC0384F83810206803F0EFFBF0
:101B7000002084F8BC0310BD022010BDD0F804245E
:101B800000F57171104602F080BD10B50446006882
:101B900094F8BC13012906D0012184F8BC13A16A72
:101BA000012902D005E0022010BD816B41F4803193
:101BB0008163206803F042FB206803F0B5F8002041
:101BC00084F8BC0310BD000010B504460068D0F8CE
:101BD000001E41F00101C0F8001ED4F8040402F018
:101BE000A4FD206A002804D00248016841F00601E3
:101BF000016010BD10ED00E01649B0F5007F0868E7
:101C0000C0F3412009D0022805D0086820F4C06044
:101C100040F480600860002070470128FBD008680D
:101C200020F4C06040F4007008600B483222006865
:101C300050430A4AB0FBF2F0401C00E0401E4A69E3
:101C4000520501D50028F9D148694005E3D50320A4
:101C500070470000007000407000002040420F00FC
:101C60000248416841F400714160704700700040D3
:101C70000248416841F48061416070470070004053
:101C80000248006800F4C060704700000070004027
:101C90000248016841F480710160704700700040A3
:101CA0000248016841F004010160704700100240E1
:101CB0002DE9F84F044600270088E54D3E46010512
:101CC00004F1200B1DD5606E78B1B0F5800F11D0F6
:101CD000B0F5000F04D0B0F5400F22D001270FE07F
:101CE000E86840F48030E8601BE00021201D01F02E
:101CF000DBFB03E00021584601F06CFC070010D02C
:101D00003E462088C00426D5A06EC0B1B0F1807FC9
:101D10001AD0B0F1007F0DD0B0F1407F19D001276B
:101D200018E0D5F88800616E20F440000843C5F83B
:101D30008800E6E7E86840F48030E86009E00021C8
:101D4000201D01F0B1FB03E00021584601F042FCE8
:101D50000746F7B13E46206880033AD5A86D4FF09C
:101D60000008C00009D4A86D40F08050A865A86D97
:101D70004FF0010800F080500090DFF8D8A2DAF8A8
:101D8000001041F48071CAF80010FEF7F1FF81469F
:101D900010E0D5F88800A16E20F040700843C5F827
:101DA0008800D8E7FEF7E4FFA0EB0900022801D97C
:101DB000032705E0DAF80000C005F3D5002F7CD03A
:101DC0004FEA0706B8F1000F03D0A86D20F080504D
:101DD000A8652078C00707D0D5F88800A16B20F04F
:101DE00003000843C5F888002078800707D5D5F898
:101DF0008800E16B20F00C000843C5F888002078CB
:101E0000400707D5D5F88800216C20F03000084342
:101E1000C5F888002078000707D5D5F88800616CE0
:101E200020F0C0000843C5F888002078C00607D518
:101E3000D5F88800A16C20F440700843C5F88800EC
:101E40002078800607D5D5F88800E16C20F4406042
:101E50000843C5F888002088800507D5D5F8880094
:101E6000E16D20F440200843C5F888002088400533
:101E700007D5D5F88800216E20F440100843C5F836
:101E800088002078400607D5D5F88800216D20F419
:101E900040500843C5F888002078000607D5D5F8DB
:101EA0008800616D20F440400843C5F88800208810
:101EB000C00509D5D5F8880000E01CE0A16D20F42C
:101EC00040300843C5F8880020884FF00067800440
:101ED0004FF080684FD5D5F88800E16E20F0406063
:101EE0000843C5F88800E06EB8423CD1E86840F489
:101EF0008010E8603FE0D5F8900010F4407015D0F5
:101F0000D4F88410814211D0D5F89000D5F8901003
:101F100020F4407041F48031C5F89010D5F890104D
:101F200021F48031C5F89010C5F89000C00710D09A
:101F3000FEF71EFF074641F2883906E0FEF718FF5C
:101F4000C11B494501D903263CE7D5F8900080071D
:101F5000F4D5D5F89000D4F8841020F440700843EC
:101F6000C5F890002EE7404505D10121201D01F064
:101F70009BFA00B106462068000317D5D5F8880003
:101F8000216F20F040600843C5F88800206FB842F8
:101F900004D1E86840F48010E86007E0404505D1CE
:101FA0000121201D01F080FA00B10646206840039F
:101FB00017D5D5F88800616F20F040600843C5F858
:101FC0008800606FB84204D1E86840F48010E8608F
:101FD00007E0404505D10121201D01F065FA00B15F
:101FE0000646208840041AD5D5F88800A16F20F055
:101FF00040500843C5F88800A06FB0F1805F03D05F
:10200000B0F1005F05D00AE00221201D01F04CFA7A
:1020100003E00221584601F0DDFA00B106462088AF
:10202000000407D5D5F88800E16F20F08040084310
:10203000C5F888002068C00307D555F8880FD4F884
:10204000801020F0004008432860304600F004B8BB
:10205000001002400070004018BCBDE8E08F000096
:102060002DE9F0470F46050058D0404E306800F08B
:102070000700B84209D2306820F0070038433060CA
:10208000306800F00700B84248D12878384CC007C3
:102090002CD06868032811D0022812D0216898B18A
:1020A000490500293ADAA16821F003010143A16042
:1020B000FEF75EFE804641F2883910E02168890112
:1020C000EFE721688903ECE78907EAE7FEF750FEAE
:1020D000A0EB0801494502D90320BDE8F087A068BC
:1020E000696800F00C00B0EB810FEFD12878800711
:1020F00005D5A068A96820F0F0000843A06030680A
:1021000000F00700B8420BD9306820F007003843D0
:102110003060306800F00700B84201D00120DCE7F1
:102120002878400705D5A068E96820F4E0600843F6
:10213000A0602878000706D5A068296920F46050BF
:1021400040EAC100A06000F045F8A168094AC1F367
:102150000311515C01F01F01C8400749086007489E
:102160000068BDE8F047FEF7CDBF00000020024048
:1021700000100240DC5500087000002068000020BC
:1021800001480068704700007000002005480649BB
:1021900000688968054AC1F30221515C01F01F0102
:1021A000C840704770000020001002401C56000814
:1021B0000548064900688968054AC1F3C221515C97
:1021C00001F01F01C840704770000020001002405D
:1021D0001C56000870B52549002318468A68CC684B
:1021E00012F00C0204F00306214C4FEA640509D0FA
:1021F0000C2A05D0042A32D0082A00D1284670BD06
:10220000012E10D10B681B0704D4D1F89430C3F30E
:10221000032302E00B68C3F30313164E56F8233072
:10222000DAB10C2AEBD1C86800F00300022818D0FC
:10223000032818D01846CA68CB68C2F30212C3F349
:1022400006234343521CB3FBF2F2C868C0F341605B
:10225000401C4000B2FBF0F070BD184670BD204637
:1022600070BD2046E7E72846E5E700000010024081
:102270000024F400EC5500082DE9F84304006FD069
:10228000FE4DA86800F00C06E86800F0030720780F
:10229000C00664D576B10C2E01D1012F0AD0A069F9
:1022A000002828687AD040F001002860FEF760FD21
:1022B00080465DE02868800702D5A0690028DED04E
:1022C000216A2868000703D5286800F0F00004E0C0
:1022D000D5F89400F02202EA1010814216D908467F
:1022E00001F0FCF900283BD1286840F00800286084
:1022F0002868216A20F0F000084328606868E169D6
:1023000020F47F4040EA0120686016E0286840F031
:10231000080028602868216A20F0F000084328603F
:102320006868E16920F47F4040EA0120686026B9CE
:10233000206A01F0D3F90028D5D1FFF74BFFA96837
:10234000CF4AC1F30311515C01F01F01C840CD49D0
:102350000860CD480068FEF7D5FE00287ED12EE04B
:10236000CAE000BFFEF704FDA0EB0800022876D803
:1023700028688007F6D5286840F00800286028689B
:10238000216A20F0F000084328606868E16920F4C1
:102390007F4040EA0120686011E0FFE720F0010083
:1023A0002860FEF7E5FC804606E000BFFEF7E0FC93
:1023B000A0EB08000228DAD828688007F6D4207835
:1023C000C00740D0082E18D00C2E01D1032F14D0F6
:1023D0006068B0F5803F17D0B0F5A02F286817D0FF
:1023E00020F480302860286820F48020286060680D
:1023F000E0B1FEF7BDFC804614E02868800322D5DA
:102400006068002878D01EE0286840F48030EDE74E
:1024100040F480202860F7E7FEF7AAFCA0EB080054
:102420006428A4D828688003F6D50CE0FEF7A0FC49
:10243000804605E0FEF79CFCA0EB0800642896D8D7
:1024400028688003F6D4207880073BD5042E11D06D
:102450000C2E01D1022F0DD0E06801E092E1F1E0F5
:10246000002828681ED040F480702860FEF780FCA9
:1024700007460CE0286840050CD5E0680028C1D06C
:1024800008E000BFFEF774FCC01B022893D8286840
:102490004005F7D56868217C20F0F85040EA0160DB
:1024A00068600FE020F480702860FEF761FC07464A
:1024B00005E000BFFEF75CFCC01B0228B1D828680D
:1024C0004005F7D42078000729D560690028D5F8A1
:1024D000940012D040F00100C5F89400FEF748FCCB
:1024E000074604E0FEF744FCC01B022899D8D5F843
:1024F00094008007F6D512E000E120F00100C5F855
:102500009400FEF735FC074605E000BFFEF730FCFF
:10251000C01B022885D8D5F894008007F6D420780F
:10252000400766D5A86D0027C00008D4A86D40F00C
:102530008050A865A86D012700F080500090534896
:102540000168C90512D40168814641F480710160B7
:10255000FEF70EFC804605E0FEF70AFCA0EB080043
:1025600002286FD8D9F80000C005F5D5A068012869
:1025700016D00528D5F8900017D020F00100C5F836
:102580009000D5F8900020F0040000BFC5F890003E
:10259000A06841F28839C0B1FEF7EAFB80460FE03F
:1025A000D5F8900040F00100F0E740F00400C5F8D5
:1025B0009000F5E7FEF7DCFBA0EB0801494541D8A8
:1025C000D5F890008007F5D50EE0FEF7D1FB8046E8
:1025D00006E000BFFEF7CCFBA0EB0801494531D86F
:1025E000D5F890008007F5D41FB1A86D20F0805079
:1025F000A865A06A38B302280AD00C2E7ED02868BD
:1026000020F080702860286810F0205F77D0AAE062
:10261000E868E26A00F0030191422BD1216B00F0DF
:10262000700209011039914224D1626B00F4FE411D
:10263000B1EB022F1ED1A26B00F40031072A03D0A8
:10264000012202E09DE089E00022914212D1A18F97
:1026500000F4C00249084905A1F50011914209D1D1
:1026600094F8401000F0C06049084906A1F10071DB
:1026700081425CD00C2E41D0286809E00010024055
:10268000DC55000870000020680000200070004049
:1026900040017ED42868C0007BD4286820F0807078
:1026A0002860FEF765FB064605E000BFFEF760FB0D
:1026B000801B022865D828688001F7D4D4E90B0173
:1026C0006FF00F0202EB01110843A18F5204490879
:1026D00002EB4151626B41EA0221084394F8401039
:1026E0004FF07E42490802EB41610843A16B0909A2
:1026F00040EA4140E968284A114001E049E02EE003
:102700000843E860286840F080702860E86840F07E
:102710008070E860FEF72CFB044604E0FEF728FB1F
:10272000001B02282DD828688001F7D52FE02868E3
:1027300080012CD4286840F080702860E86840F060
:102740008070E860FEF714FB044604E0FEF710FB1F
:10275000001B022815D828688001F7D517E0E86823
:1027600020F00300E860E8680C490840E860FEF7E4
:10277000FFFA044608E000BFFEF7FAFA001B022841
:1027800002D90320BDE8F88328688001F4D4002032
:10279000F8E70120F6E700008C809DF9FFFFEEFED0
:1027A00010B5401EB0F1807F01D3012010BD4FF065
:1027B000E02460610F21601702F06FFE0020A0612D
:1027C00007202061002010BD704770472DE9F041BF
:1027D00002680446D0691168936840F60F052842E4
:1027E0004FF0000505D186067BD58E0679D5216E82
:1027F00088E04D4F03F001060F40374371D0C70703
:1028000007D0CF0505D501271762E26F42F001021C
:10281000E267820708D5DA0706D0276802223A6203
:10282000E26F42F00402E267420708D5DA0706D0F9
:10283000236804221A62E26F42F00202E267020792
:102840000AD501F02002324306D0236808221A621A
:10285000E26F42F00802E267020509D54A0107D596
:1028600023684FF400621A62E26F42F02002E267CE
:10287000E26F002A2ED0800605D5880603D5216E8A
:1028800009B120468847E06F21688968490602D46B
:1028900010F0280F20D0204601F0B2F8206881689F
:1028A000490614D5816821F040018160E06E70B165
:1028B0001E498163E06EFEF7E9F800280AD0E06E59
:1028C000816B00E02046BDE8F041084709E0204662
:1028D000FFF77BFFBDE8F0812046FFF776FFE56755
:1028E000F8E7C60209D55B0207D54FF480101062E5
:1028F0002046BDE8F041FFF767BF030605D50B068C
:1029000003D5616E0029DDD1E4E74006E2D5480633
:10291000E0D51168204621F0400111602021616757
:10292000656600F06EF9D5E720010004ED39000876
:1029300010B5040002D0606F10B107E0012010BD97
:10294000002084F87000204600F026F824206067FC
:102950002068016821F001010160204601F0BAF809
:102960000128ECD0606A10B1204600F0AFFF20686B
:10297000416821F4904141602068816821F02A017A
:1029800081602068016841F0010101602046BDE8D6
:10299000104000F0FFBF00002DE9F04186B0044672
:1029A00014216846FDF759FC624B226800256249F4
:1029B00002240326082761489A421CD18A6D42F4FA
:1029C00000228A658A6D02F400220592CA6C42F0E8
:1029D0000402CA64C96C01F004010591B1028DE8DA
:1029E000F2006946FEF78CF8002211463420FEF70B
:1029F000CFFB34202FE0524BDFF848819A422FD191
:102A00008A6D42F480128A658A6D02F48012059202
:102A1000CA6C42F00402CA64CA6C02F00402059255
:102A2000CA6C42F00802CA64C96C01F00801059141
:102A300099148DE8F2006946FEF762F804208DE8EB
:102A4000F10069464046FEF75BF80022114635204A
:102A5000FEF79EFB3520FEF78DFB06B0BDE8F0814A
:102A6000394B07209A4220D10A6E42F480420A660E
:102A70000A6E02F480420592CA6C42F00102CA64F6
:102A8000C96C049001F0010105914FF4C0618DE81B
:102A9000720069464FF09040FEF732F8002211466E
:102AA0002520FEF775FB2520D5E7284B9A421ED13D
:102AB0008A6D42F400328A658A6D02F40032059212
:102AC000CA6C42F00802CA64C96C049001F00801A3
:102AD000059160218DE8720069464046FEF710F8C6
:102AE000002211462620FEF753FB2620B3E7184BA1
:102AF0009A42B2D18A6D42F480228A658A6D02F4CC
:102B000080220592CA6C42F00802CA64C96C049023
:102B100001F0080105914FF440718DE8720069469B
:102B20004046FDF7EDFF002211462720FEF730FB5F
:102B3000272090E7004C00400010024000080048A9
:102B400000500040000C00480038014000440040A4
:102B50000048004030B5836F202B4BD1B1B1AAB1F2
:102B600090F87030012B45D0012380F8703041651A
:102B7000A0F85820A0F85A20002101661D038268A1
:102B8000FF23AA4207D1026912B125E0012030BD1E
:102B900040F2FF1226E07F24E2B1B2F1805F1ED046
:102BA000A0F85C10C167222282670268936843F034
:102BB000010393608268AA4201D10269C2B10E4A40
:102BC000026680F870100068016841F4907101603D
:102BD000002030BD026942B9A0F85C30E2E702692A
:102BE0001AB13F22A0F85C20DCE7A0F85C40D9E7EE
:102BF000024AE5E7022030BD793A00081F3A000892
:102C000070477047FEE700000148FEF70BB900006F
:102C1000900100200148FEF705B90000DC0100200A
:102C200001688A69D243920701D400228A6200684F
:102C30008169C943C90703D0816941F001018161FC
:102C4000704700002DE9F0410446006890460E46AA
:102C50008069C043C00633D40025202720688069DE
:102C6000C043800615D5701CF8D0FEF781F8A0EBA4
:102C70000800B04201D8002EF0D154F8440F40F0C3
:102C8000200044F804096770A57025700120BDE894
:102C9000F08121681020C8612068C7612046FFF7D5
:102CA000BFFF54F8440B4168064A11404160206858
:102CB00040F0040044F820096777A5772577E5E719
:102CC0000020E4E700E800FEF0B50568059C6868B0
:102CD0004FF48066064FC1F3090106EA545641EAF3
:102CE00002413E431943B043214308436860F0BDAD
:102CF000FF63FF032DE9F0411D4617460E460446CB
:102D0000DDF8188008E0681C06D0FEF731F8A0EB6B
:102D10000800A8420BD855B12068806936EA000047
:102D200012D00020B842EED00020BDE8F08154F867
:102D3000440F40F0200044F8040920206070002077
:102D4000A07020700120F0E70120EBE770B5164677
:102D50000D4604460DE0324629462046FFF772FF35
:102D600008B1012070BDFEF703F8801BA84207D808
:102D700035B120688069C0438006ECD4002070BD66
:102D800054F8440F40F0200044F8040920206070FB
:102D90000020A0702070E4E770B516460D4604468A
:102DA0000FE0324629462046FFF74CFF08B10120CC
:102DB00070BD681C05D0FDF7DBFF801BA84207D85B
:102DC00035B120688069C0438007EAD4002070BD17
:102DD00054F8440F40F0200044F8040920206070AB
:102DE0000020A0702070E2E71CB501208DF80400DF
:102DF000FF200090012301AA46210248FEF776F841
:102E00001CBD0000DC0100201CB506A002230068E8
:102E100001901020009001AA88210348FEF766F86F
:102E20001CBD0000223600009001002010B5FFF705
:102E3000DBFFBDE81040FFF7E7BF0000F0B500235F
:102E40000A24302537261F4611E000BFB4EB107F5F
:102E500002D905EB107C01E006EB107C01F813C0F1
:102E600001EB430C00015B1C8CF80170DBB2934258
:102E7000ECD3F0BD00EB8100006E00F0F84070472D
:102E80008068C0F3C00070478068C0F3800070475E
:102E90008068C0F380007047042303EAD15310B563
:102EA00018444369C1F3045107248C40A3438A406A
:102EB0001343436110BD00EB8100016E21F000411E
:102EC000114301667047000030B589B000240694B4
:102ED0000794182168460894FDF7BFF91B481A4962
:102EE0000425C0E900148460C460C0E90445047688
:102EF00044760121C16180F820408462C46280F878
:102F00003040446380F83840FDF7AEFC08B1FDF76F
:102F100032FA06A90D480694FDF72EFA08B1FDF71E
:102F20002AFA0B4800900620CDE901047F20059481
:102F3000CDE9030569460548FDF796FA002801D05A
:102F4000FDF719FA09B030BD00000450A8040020B4
:102F5000040060082DE9F04786B014216846FDF7AB
:102F60007CF99348C16C41F00101C164C16C01F06E
:102F700001010591C16C41F00201C164C16C01F015
:102F800002010591C16C41F00401C164C16C01F002
:102F900004010591C16C41F00801C164C16C01F0EC
:102FA00008010591C16C41F01001C164C16C01F0D0
:102FB00010010591C16C41F02001C164C16C01F0A8
:102FC00020010591C16C41F04001C164C16C01F068
:102FD00040010591C16C41F08001C164C06C00F0FA
:102FE00080000590FEF73CFE022703250124002601
:102FF00000970395DFF8BC81CDE90146694640465C
:10300000FDF77EFD012202214046FDF7ACFE03954F
:103010000094DFF8A4A1CDE9014669465046FDF7CA
:103020006FFD012211465046FDF79DFE0097039566
:10303000CDE9014669465046FDF762FD00220221B6
:103040005046FDF790FE270300970395DFF86C814B
:10305000CDE9014669464046FDF752FD0122394659
:103060004046FDF780FEE70200970395CDE9014653
:1030700069464046FDF744FD002239464046FDF7CB
:1030800072FE00970395DFF83891CDE90146694655
:103090004846FDF735FD012239464846FDF763FEF7
:1030A000A70200970395CDE9014669464846FDF71A
:1030B00027FD002239464846FDF755FEA703009735
:1030C0000395CDE9014669464046FDF719FD012209
:1030D00039464046FDF747FEE70300970395CDE9E3
:1030E000014669464046FDF70BFD00223946404641
:1030F000FDF739FE00970395CDE90146694648463C
:10310000FDF7FEFC012239464846FDF72CFE04205F
:1031100003958DE8510069465046FDF7F1FC002209
:1031200004215046FDF71FFE082003958DE851004D
:1031300069465046FDF7E4FC012208215046FDF7A0
:1031400012FE102003958DE8510069465046FDF7A8
:10315000D7FC002210215046FDF705FE20200395E4
:103160008DE8510069465046FDF7CAFC0122202136
:103170005046FDF7F8FD402003958DE85100694663
:103180005046FDF7BDFC002240215046FDF7EBFD07
:10319000CDE90054CDE9026569464846FDF7B0FC2B
:1031A000002203214846FDF7DEFD06B0BDE8F087AA
:1031B00000100240001000480018004800140048A9
:1031C000000C0048134810B51149016012494160D4
:1031D00000210122C0E90212016141618161C161E6
:1031E0000162FDF727FE08B1FDF7C5F80021094887
:1031F000FDF7C4FD08B1FDF7BEF800210548FDF755
:10320000E8FD002803D0BDE81040FDF7B4B810BDBC
:103210000054004090010020EC9C9010134810B521
:10322000114901601249416000210122C0E90212E6
:10323000016141618161C1610162FDF7FBFD08B17E
:10324000FDF799F800210948FDF798FD08B1FDF751
:1032500092F800210548FDF7BCFD002803D0BDE829
:103260001040FDF788B810BD00580040DC01002078
:10327000EC9C90100D4810B50B4901604FF41651AD
:103280004160002181600C22C160C0E904128161AB
:10329000C16101624162FFF74BFB002803D0BDE82A
:1032A0001040FDF768B810BD004C00402802002017
:1032B0000D4810B50B4901604FF4165141600021D3
:1032C00081600C22C160C0E904128161C1610162A8
:1032D0004162FFF72DFB002803D0BDE81040FDF749
:1032E0004AB810BD00500040A80200200D4810B59B
:1032F0000B4901604FF416514160002181600C229E
:10330000C160C0E904128161C16101624162FFF7DD
:103310000FFB002803D0BDE81040FDF72CB810BD0E
:10332000003801402803002010B50F4C0D480C2137
:1033300020604FF4165060600020A060E060C4E997
:103340000401A061E061206260622046FFF7F0FAAC
:1033500008B1FDF710F82068016841F02001016014
:1033600010BD000000440040A80300200D4810B527
:103370000B4901604FF416514160002181600C221D
:10338000C160C0E904128161C16101624162FFF75D
:10339000CFFA002803D0BDE81040FCF7ECBF10BD09
:1033A000004800402804002010B500220F491048B2
:1033B00000F0E1FF08B1FCF7DEFF0E490C4801F018
:1033C000E3F908B1FCF7D7FF0B49094800F005FE07
:1033D00008B1FCF7D0FF064801F050FA002803D0EE
:1033E000BDE81040FCF7C7BF10BD00000000002082
:1033F0005C0500205001002050000020FEE77047CF
:103400000148FEF77BB800004C1C00202DE9F04776
:103410000E46C1EBC60100EB81040568D4E9141027
:103420003C34884202D90120BDE8F087081AA1681F
:10343000814200D20846C01C870805EB461817E0F9
:10344000A0EB0109A068484500D2814609F10300BC
:1034500087081FFA89F3F2B22846E16801F0FCFF01
:10346000E16801EB0900E060A16901EB0900A061DE
:10347000D8F8180980B2B84205D3D4E905018142D1
:1034800001D20028DCD1D4E90501884208D806F031
:103490000F0101208840D5F834188143C5F834184D
:1034A0000020C1E7704700002DE9F041444C05467B
:1034B0008846E0680026810728680DD0E16801F0A1
:1034C0000301814216D1A8B1E0686968C0F3021017
:1034D000401C88420ED120E0012804D0022805D0EB
:1034E000032807D108E02168890701E02168490520
:1034F000002907DB01265FE02168890302D42168E7
:103500004903F5E7E1686A686FF00F0321F0730182
:1035100003EB021211430143E160206820F0806058
:103520002060FDF725FC074605E000BFFDF720FC05
:10353000C01B022837D820680001F7D4B8F1000F6B
:1035400018D0B8F1010F1ED0287D4FF07E41400801
:1035500001EB4060A96840EA01202169194A114045
:1035600008432061206840F080602060FDF700FC87
:1035700007461AE0A868E9680002090940EA4140E4
:103580002169114AEBE7288A1049400801EB4050B5
:10359000A96840EA012021690D4AE0E7FDF7E8FB50
:1035A000C01B022801D9032606E020680001F5D5DA
:1035B0002069A969084320613046BDE8F081000018
:1035C00000100240FF80FFF9FF80FDFF0000E0FFD8
:1035D000FF809FFF2DE9F0413D4C06468846E0689C
:1035E0000025810730680DD0E16801F003018142B8
:1035F00016D1A8B1E0687168C0F30210401C88427F
:103600000ED120E0012804D0022805D0032807D1DC
:1036100008E02168890701E021684905002907DBE6
:10362000012551E02168890302D421684903F5E7A7
:10363000E16872686FF00F0321F0730103EB02126F
:1036400011430143E160206820F080502060FDF7C5
:103650008FFB074605E000BFFDF78AFBC01B022871
:1036600029D820688000F7D4B8F1000F15D0307C3D
:103670004FF07E41400801EB4060B16840EA012014
:103680006169144A114008436061206840F080502D
:103690002060FDF76DFB07460FE0B068F16800029F
:1036A000090940EA414061690B4AEBE7FDF760FB1D
:1036B000C01B022801D9032506E020688000F5D54B
:1036C00060697169084360612846BDE8F0810000C7
:1036D00000100240FF80FFF9FF80FDFFF8B51C4D90
:1036E00006460024A86DC00002D5FEF7C9FA0DE019
:1036F000A86D40F08050A865A86D00F08050009043
:10370000FEF7BEFAA96D21F08051A965B0F5007FE2
:1037100004D0802E07D94FF003040AE0802E08D988
:10372000A02E01D804E001D1022402E0702E00D1C5
:1037300001240848016821F0070121430160006865
:1037400000F00700A04201D00120F8BD0020F8BD24
:10375000001002400020024070470178407841EAA2
:103760000020704710B5FFF701FEBDE810400E22A3
:1037700001490248FFF7EEB91A050020280400208D
:1037800010B5FFF795FDBDE810400E220149024833
:10379000FFF7E0B90C050020A802002010B5FFF7E4
:1037A000C3FDBDE81040322201490248FFF7D2B9FB
:1037B00028050020A8030020FDF78CBCF0B5B9B0A7
:1037C000442122A8FCF749FD142133A8FCF745FD4C
:1037D00088216846FCF741FDFEF75AFA234850F865
:1037E000901F21F0180101601420012522902895D6
:1037F000002424956020CDE92940CDE92C452820DE
:1038000002260727CDE92E50CDE93076329622A840
:10381000FEF732FD0F20CDE93304359436940421B0
:1038200033A83794FEF71CFC0F9446F2DF00149483
:1038300000901194A8061B9080001E9012941820EE
:10384000CDE9025010941594019528060E94CDE907
:103850000660CDE904766846FEF72AFA6802FEF7AC
:10386000CBF9FEF71DFA39B0F0BD000000100240A0
:103870000D48016841F4700101600C48016841F095
:1038800001010160002181600268094B1A40026059
:103890008214C260026822F48022026081610249BF
:1038A000C00380390860704788ED00E000100240D6
:1038B000FFFFF6EA0148FEF789BF0000280200205A
:1038C0000148FEF783BF0000A802002090F82410F2
:1038D000C90706D001684A68836A22F400321A4395
:1038E0004A6090F82410890706D501684A68C36ABF
:1038F00022F480321A434A6090F82410490706D512
:1039000001684A68036B22F480221A434A6090F8E7
:103910002410090706D501684A68436B22F4004267
:103920001A434A6090F82410C90606D501688A68CF
:10393000836B22F480521A438A6090F8241089061F
:1039400006D501688A68C36B22F400521A438A6064
:1039500090F82410490611D501684A68036C22F4D6
:1039600080121A434A60016CB1F5801F06D10168CC
:103970004A68436C22F4C0021A434A6090F824104B
:10398000090606D501684A68806C22F400220243C9
:103990004A607047F8B500260446C667FDF7E8F9A7
:1039A0000546206800686FF07E47000708D52B4663
:1039B00000224FF400112046009700F0B1F960B9E1
:1039C0002068006840070AD52B4600224FF480018A
:1039D0002046009700F0A4F908B10320F8BD20208C
:1039E0006067A06784F870600020F8BD10B5806A39
:1039F0000021A0F85A10A0F85210FEF7E6FE10BD04
:103A000001680A6822F490720A6001688A6822F0EC
:103A100001028A602021816700210166704710B58C
:103A2000B0F85C20836F0168222B04D0088B40F033
:103A30000800088310BD898C436D11401980416DC9
:103A4000891C4165B0F85A10491EA0F85A10B0F808
:103A50005A100029EED101680A6822F490720A60B7
:103A600001688A6822F001028A60202181670021B2
:103A70000166FFF7C5F810BD10B5B0F85C20836F84
:103A80000168222B04D0088B40F00800088310BD89
:103A9000898C1140426D1170416D491C4165B0F82F
:103AA0005A10491EA0F85A10B0F85A100029EED149
:103AB00001680A6822F490720A6001688A6822F03C
:103AC00001028A602021816700210166FFF798F8D2
:103AD00010BD00002DE9F0410446016880682269AC
:103AE000E3691043626900251A431043824F0A6854
:103AF000824B1A4002430A6020684168E26821F460
:103B00004051114341602168A069B94201D0226A45
:103B100010438A6822F4306202438A60784922683E
:103B200078488A420DD1D0F8880010F0030006D002
:103B3000012866D0022854D0032851D163E0012027
:103B40004FE071498A420BD1D0F8880010F00C0088
:103B500047D0042845D0082851D00C2840D152E045
:103B60006A498A420BD1D0F8880010F0300038D072
:103B7000102846D0202842D0302831D143E0644973
:103B80008A420BD1D0F8880010F0C00029D040281C
:103B900037D0802833D0C02822D134E05D498A4212
:103BA0000ED1D0F8880010F440701AD0B0F5807FA4
:103BB00027D0B0F5007F22D0B0F5407F10D122E0B1
:103BC000BA420DD1D0F8880010F4406009D0B0F5A9
:103BD000806F16D0B0F5006F11D0B0F5406F12D0E5
:103BE00010204D4B00264FF40041BA422ED160B157
:103BF000022813D004280BD0082874D10DE002202D
:103C0000EFE70420EDE70820EBE7FEF7BFFA01E05D
:103C1000FEF7E0FA030001D169E00B46626802EBAF
:103C2000420098425FD8B3EB023F5CD8190E1802ED
:103C300073084FEA3207C01959410023FCF7C0FA54
:103C4000364AA0F5407191424FD94CE0E2694FF6F7
:103C5000EF778A4228D1092845D2DFE800F005082D
:103C600011440D4444441000FEF790FA01E0FEF7C1
:103C70009FFA030004D13AE0FEF7ACFAF9E70B46ED
:103C80006068590001EB5001B1FBF0F080B2A0F187
:103C90001001B94227D84FF6F0710140C0F342003D
:103CA00001432068C16022E009281CD2DFE800F04F
:103CB0000508111B0D1B1B1B1000FEF767FA01E026
:103CC000FEF776FA030004D111E0FEF783FAF9E774
:103CD0000B46606803EB5001B1FBF0F080B2A0F13D
:103CE0001001B94201D9012501E02168C8602666AA
:103CF00028466666BDE8F08100800040F369FFEF6A
:103D000000380140001002400044004000480040DC
:103D1000004C0040005000400024F400FFFC0F0065
:103D20002DE9F0479A4617460E4604464FF0000923
:103D30004FF02008089D39E0681C37D0FDF718F8CF
:103D4000A0EB0A00A84222D80DB3206801684907F9
:103D50002CD5C069C043000528D421684FF4006009
:103D600008622068016821F4D071016020688168D0
:103D700021F001018160C4F87480C4F87880C4F82F
:103D80007C8000BF84F870900320BDE8F087206835
:103D9000016821F4D07101602068816821F001017F
:103DA0008160C4F87480C4F87880EBE72068C0694B
:103DB00036EA000004D00020B842BDD00020E4E77D
:103DC0000120F9E70148FEF701BD000028030020AB
:103DD0000148FEF7FBBC0000A80300200148FEF7E5
:103DE000F5BC0000280400202DE9F0410C46D0F875
:103DF000C422D0F8BC12F9B104EB840300EB8305B4
:103E00000026AB694BB1C4EBC40702EB8702526CCE
:103E1000B3FBF2F702FB173282B1C1F81462D0F89B
:103E2000C00203692BB1D1F80802224601F50471E2
:103E300098470020BDE8F0810320FBE700231A46E5
:103E40002146AE6100F07AFCF3E770B5D0F8BC42D1
:103E500005466CB100F05CFBC4F80C02D5F8C0124A
:103E6000D4F80402CA6804F503719047002070BDBD
:103E7000032070BD70B50446812100F09FFA002533
:103E800025870121204600F099FAA4F87851822173
:103E9000204600F093FAA4F84C50A4F84E50D4F801
:103EA000BC0248B1D4F8C00204F52F7440688047C2
:103EB000206801F011FB2560002070BD10B5D0E92D
:103EC000AF4159B194F80002FF2807D08B6894F8ED
:103ED000012221469847FF2084F80002002010BDEF
:103EE0000A210180004870477800002043210180AA
:103EF00000487047C80000204321018000487047F7
:103F00008400002043210180004870470C010020FC
:103F10002DE9F04704464FF4077001F029FB050036
:103F20004FF0000735D0C4F8BC52207C4FF0100889
:103F30004FF40079012680B34023022281212046DC
:103F400000F02EFB2687402302220121204600F0AC
:103F500027FBA4F87861A4F84E800823032282216D
:103F6000204600F01DFBA4F84C60D4F8C0020068A5
:103F70008047C5F81472C5F81872207CD5F8042261
:103F8000A8B140230121204600F01DFB0020BDE820
:103F9000F0870220C4F8BC72F9E7FFE74B46022223
:103FA0008121204600F0FCFA26874B46CCE74B46A1
:103FB000E8E710B5D0F8BC1251B1027C002AD1F864
:103FC000042207D04023012100F0FDFA002010BD9B
:103FD000032010BD4FF40073F5E719B1C0F8C0120B
:103FE0000020704703207047D0F8BC02C0F80412CC
:103FF00000207047D0F8BC02C0F81022C0F80812A8
:10400000002070472DE9FC410546D0F8BC72002025
:104010008DF80000ADF80400064608780C4610F054
:10402000600121D020293DD1E288AAB10006607844
:1040300007D5D5F8C0128B6839469847E2883946CB
:1040400028E087F80002A07987F80102E288394663
:10405000284600F052F82AE0D5F8C0126078002215
:104060008B682146984722E0607830B101281ED045
:104070000A2809D00B2815D110E095F89C020328D6
:1040800010D1022201A905E095F89C02032809D16C
:1040900001226946284600F04AF808E095F89C029B
:1040A000032804D02146284600F01CF80326304699
:1040B000BDE8FC8110B5D0F8B8220AB1526890472B
:1040C000002010BD134610B50A46002100F07BFA0F
:1040D000002010BD134610B50A46002100F02EFB4B
:1040E000002010BD10B50446802100F0FEFA2046E5
:1040F000BDE81040002100F0F8BA10B50323C0F865
:104100005821C0F89432C0F85C2113460A460021B9
:1041100000F059FA002010BD10B505210023C0F8A9
:1041200094121A46194600F04EFA002010BD10B540
:1041300002238261C0F89432C26113460A4600210C
:1041400000F0FCFA002010BD10B504210023C0F8D7
:1041500094121A46194600F0F1FA002010BD000032
:1041600010B50A46024903A000F0E1F8004810BD6E
:104170002C08002043444320436F6E6669670000AB
:1041800012200880004870472000002010B50A4621
:10419000024903A000F0CBF8004810BD2C08002015
:1041A00043444320496E7465726661636500000094
:1041B00004200880004870471C00002010B50A4603
:1041C000024903A000F0B3F8004810BD2C080020FD
:1041D00053544D6963726F656C656374726F6E6979
:1041E0006373000010B50A46024903A000F09FF86F
:1041F000004810BD2C08002053544D33322056691E
:10420000727475616C20436F6D506F7274000000A2
:1042100010B51A2008800A480168001D0468001DB6
:104220000068081809D008220649FEF707FE05496C
:10423000042210312046FEF701FE0248801E10BD08
:104240009075FF1F36000020F8B504460020ADF839
:10425000000048880D46010A08295FD2DFE801F016
:104260005E0409175E5E3C45D4F8B412207C0A68EF
:1042700019E0207C02260028D4F8B80205D0C16AD3
:10428000684688470146467039E0816AF8E7C0B25F
:10429000062843D2DFE800F0030A1014181CD4F8F3
:1042A000B402426805E0694690471CE0D4F8B402C5
:1042B000826892B3207CF6E7D4F8B402C268F8E7CB
:1042C000D4F8B4020269F4E7D4F8B4024269F0E722
:1042D000D4F8B4028269ECE7207CF0B9D4F8B802D3
:1042E000416B68468847014609E0207CA8B9D4F8AC
:1042F000B802016B68468847014607204870EA8883
:104300008AB1BDF8000040B1824200D90246ADF842
:1043100000202046FFF70BFFF8BDFFE729462046A7
:10432000FFF7E0FEF8E72046FFF70EFFF4E770B571
:10433000002300281ED00025044602E06D1CEDB2CB
:10434000641C2678002EF9D1022404EB4504148065
:104350001278CA545B1C0322CA5400245B1C06E07A
:10436000CA545B1CDAB28C54521CD3B2401C027883
:10437000002AF5D170BD78B10023C0F8B832C0F87A
:10438000C032C0F8CC3209B1C0F8B412012180F8B3
:104390009C12027000F0C0B80320704710B50024D2
:1043A000D0F8C402FCF7D1FF30B1012801D00228B7
:1043B00001D0032400E00124204610BD10B50024E4
:1043C000D0F8C402FCF79BFF30B1012801D00228CD
:1043D00001D0032400E00124204610BD70B516462C
:1043E000044649B1D4F8B80242691AB194F89C0263
:1043F000032842D0032070BDD4F89412002504F1A4
:104400001400022932D1D0E902318B4206D95A1A5E
:10441000826031462046FFF75DFE0FE0994214D1DD
:104420004068884211D3D4F8981288420DD20022F5
:1044300011462046FFF74EFEC4F8985200231A4654
:104440001946204600F0BFF810E0D4F8B802C16861
:1044500029B194F89C02032801D120468847802185
:10446000204600F042F92046FFF756FE94F8A002DD
:10447000012806D184F8A05203E020469047002886
:10448000B9D1002070BD10B51346044649B1D4F827
:10449000B80282691AB194F89C02032824D0032040
:1044A00010BDD4F8941204F5AA70032920D1D0E9E4
:1044B000021291420AD98A1A8260C068824200D3ED
:1044C000024619462046FFF7FDFD11E0D4F8B80278
:1044D000016929B194F89C02032801D1204688473C
:1044E0002046FFF731FE03E0204690470028D7D151
:1044F000002010BD0020704710B5012180F89C12EB
:10450000D0F8B82212B1526801799047002010BD4E
:10451000D0F8C402FCF747BF10B5017839BB154984
:10452000C1F80404C0F8C4124FF0A040086006208F
:1045300048600220C86088610020C8610862486243
:1045400088620863C8620846FDF70FFA08B1FBF7F6
:1045500012FF80210748FCF791FE40220021054808
:10456000FCF790FE802201210248FCF78BFE002020
:1045700010BD00004C1C00200A0601F07F01D0F89D
:10458000C402C1EBC10100EB810002D590F83E00EE
:10459000704790F8FE017047002070470020704778
:1045A00070B51D4613460024D0F8C4022A46FCF715
:1045B00003FF30B1012801D0022801D0032400E01C
:1045C0000124204670BD10B50024D0F8C402FCF7C9
:1045D00023FF30B1012801D0022801D0032400E0DC
:1045E0000124204610BD70B50125044680F89C5278
:1045F0000020C4F894026060C4F8A402D4F8BC029D
:1046000028B1D4F8B8020021426820469047002221
:10461000402311462046FFF7C3FF4026A4F864510B
:104620003346002280212046C4F86061FFF7B8FFBE
:10463000A5840020266270BD90F89C12042903D145
:1046400090F89D1280F89C120020704710B590F8E9
:104650009C12032904D1D0F8B812C96901B1884766
:10466000002010BD01740020704710B50024D0F860
:10467000C402FDF76FFA30B1012801D0022801D041
:10468000032400E00124204610BD70B5044600F26A
:10469000AA20054600F062F80120C4F89402B4F89C
:1046A000B002C4F8980294F8AA0210F01F010AD0D0
:1046B00001290ED0022912D000F080012046BDE869
:1046C000704000F012B829462046BDE8704000F066
:1046D000D7B829462046BDE8704000F0FBB929460E
:1046E0002046BDE8704000F055B910B50024D0F860
:1046F000C402FCF7AEFE30B1012801D0022801D07F
:10470000032400E00124204610BD10B50024D0F899
:10471000C402FDF73AFA30B1012801D0022801D0D5
:10472000032400E00124204610BD90F89C1280F87C
:104730009D12042180F89C120020704710B50024BF
:10474000D0F8C402FCF7BEFE30B1012801D0022827
:1047500001D0032400E00124204610BD70B50546B9
:1047600011F8010B2870087868704C1C2046FEF781
:10477000F4FF6880A41C2046FEF7EFFFA880A01C71
:10478000FEF7EBFFE88070BD38B504460020ADF8B9
:10479000000049B1C4F8B812C96A19B1684688471F
:1047A000C4F8CC02002038BD032038BD02460320E7
:1047B000D2F8B832002B02D01B6810461847704759
:1047C0002DE9F0410F462C4E8978002504463170C2
:1047D000012906D939462046FFF784FC0320BDE8AD
:1047E000F08194F89C0202280CD003281DD0394691
:1047F0002046FFF777FC31782046FFF75BFC032566
:104800002846ECE799B320466160FFF7CFFF05002B
:1048100004D039462046FFF765FCF1E72046FFF754
:1048200093FC032084F89C02EAE74FF00208C1B130
:10483000606888421BD0C1B22046FFF73BFC31784C
:1048400020466160FFF7B2FF050010D039462046D0
:10485000FFF748FC21792046FFF72CFC84F89C8266
:10486000CEE784F89C8220466160FFF723FC204657
:10487000FFF76AFCC4E7000074000020FFF745BFA3
:104880002DE9F0410A78002512F0600208D0202AB4
:1048900001D0402A71D1D0F8B8229268904731E017
:1048A0004B78002201260A2B67D2DFE803F0415E35
:1048B0006658660805662D29FFF7C6FC5FE00446CA
:1048C0008888D8B9C888C8B94888802816D200F026
:1048D0007F0794F89C02032810D084F89E72394612
:1048E0002046FFF7C2FE2046FFF72EFC1FB1022034
:1048F00084F89C0243E084F89C6240E020463CE05F
:10490000FFF75EFF05463AE0CB88012B35D190F8E2
:104910009C32012B04D0022B02D0032B2DD104E0BA
:104920008260012200F1080116E00122011D13E05E
:1049300090F89C22012A03D0022A01D0032A1CD11C
:10494000CA88022A19D1C660D0F8A41209B103217D
:10495000C160022200F10C01FFF7E9FB0FE049887A
:1049600001290CD1C0F8A46211E090F89C32012B0F
:1049700008D0022B06D0032B04D0FFF7B3FB284648
:10498000BDE8F08149880129F9D1C0F8A422FFF7D8
:10499000DBFBF4E72DE9F0410D46044628780026BC
:1049A000097910F060000BD0202801D040286DD18B
:1049B000D4F8B8022946826820469047064686E029
:1049C0006878A8B3012822D003287CD194F89C02EF
:1049D000022802D0032876D10BE0002973D0802969
:1049E00071D02046FFF781FE80212046FFF77DFE33
:1049F0006DE0688838B931B1802904D0E88810B9F1
:104A00002046FFF772FE2046FFF79EFB5FE094F81A
:104A10009C020228E1D0032855D16888A8BB48062B
:104A200002D02046FFF7BAFC2046FFF78DFBBFE718
:104A3000FFE794F89C020027022802D0032842D105
:104A400011E009B180293ED1080601F07F0000EB9A
:104A5000800004EB800101D5143101E001F5AA7159
:104A600002220F602BE0080601F00F0000EB80002F
:104A700004EB80000BD5808C40B101F07F0000EB8F
:104A8000800004EB800514350CE020E01BE0B0F85A
:104A90006401C0B101F07F0000EB800004EB8005F1
:104AA00005F5AA7541B1802906D02046FFF764FDBF
:104AB00010B10120286000E02F6002222946204624
:104AC000FFF735FB03E029462046FFF70BFB304696
:104AD000BDE8F08170B50646087800240D4610F058
:104AE000600003D0202801D0402817D196F89C02FE
:104AF000012803D0022801D003280FD128790128EA
:104B00000CD8D6F8B8028268304690470446E88848
:104B1000204306D13046FFF717FB02E03046FFF78F
:104B2000E1FA204670BD000070B50A78012302F05A
:104B30000F054E78AB401B4CD0F81C58012E17D0F7
:104B400045EA0343C0F81C3800EB4210D0F8002BB4
:104B500012040BD4D0F8002B0B89C978C3F30A03D5
:104B60001A4344EA81410A43C0F8002B002070BD7B
:104B70009BB21D43C0F81C5800EB4210D0F800391E
:104B80001B04F3D4D0F800390D89C978C5F30A05A0
:104B900089042B4341EA82510B432343C0F8003977
:104BA000E4E7000000800010D0F800196FF30A015C
:104BB000C0F80019D0F8041841F48071C0F8041846
:104BC0000020704770B5044606990A9D0D9801298A
:104BD0000CD0E06840F04000E060204600F022F891
:104BE000A16BD5B121F48031A16370BDA16B21F41B
:104BF0008031A163E1680A4A1140E160E16821F473
:104C00004011E160012803D1E06840F48010E060C9
:104C10002046BDE8704000F005B841F48031E3E77C
:104C2000BFFFBDFF01220C4902E0521C8A420BD893
:104C30000369002BF9DA026942F0010202610122E4
:104C400004E0521C8A4201D9032070470369DB0744
:104C5000F7D1002070470000400D030030B54C78BC
:104C60000A78012300EB4212012C2CD0D2F8004B21
:104C7000002C0BDAD2F8004B44F00064C2F8004B71
:104C8000D2F8004B44F08044C2F8004BD0F83C58B6
:104C90000C7804F00F0403FA04F425EA0444C0F885
:104CA0003C48D0F81C48097801F00F018B4024EAF9
:104CB0000341C0F81C18D2F8000B19490840C2F88B
:104CC000000B002030BDD2F80049002C0BDAD2F8DE
:104CD000004944F00064C2F80049D2F8004944F0A9
:104CE0008044C2F80049D0F83C480D7805F00F0523
:104CF00003FA05F5ADB2AC43C0F83C48D0F81C4807
:104D0000097801F00F018B4099B28C43C0F81C4820
:104D1000D2F8000903490840C2F80009D1E70000B1
:104D20000078F3EF007833ECD0F8001E21F0030197
:104D3000C0F8001ED0F8041821F00201C0F80418D1
:104D400000207047D0F8001E21F00301C0F8001EBB
:104D5000D0F8041841F00201C0F804180020704790
:104D60002DE9F04F00250E460446DDF830B0109FC7
:104D70002846294604EB8002C2F80411401C0F2883
:104D8000F8D320465FB3806B40F40012A26308465C
:104D90008846C4F8000ED4F800182046C4F800185D
:104DA000D4F8001841F00301C4F80018102100F0F5
:104DB0005BFA00B10125204600F046FA00B101255A
:104DC0004046C4F81088C4F81488C4F81C88002130
:104DD0004FF000694FF0904A4FF67F3327E0D0F84C
:104DE000040840F00202C4F80428A06B20F400126A
:104DF000A263206840F040022260206840F08002F8
:104E00002260C4E704EB4112D2F800C9BCF1000FE4
:104E100006DA11B1C2F800A904E0C4F8009901E073
:104E2000C2F80009C2F81009C2F80839491C8E42BC
:104E3000E8D8002115E000BF04EB4112D2F800CB06
:104E4000BCF1000F06DA11B1C2F800AB04E0C4F8FF
:104E5000009B01E0C2F8000BC2F8100BC2F8083B3F
:104E6000491C8E42E8D8D4F8101821F48072C4F896
:104E70001028A0616FF080406061A06940F01000D0
:104E8000A061A06909490843A061BBF1000F03D0EC
:104E9000A06940F00800A061012F03D1A069044976
:104EA0000843A061284600F005B8000000383C80A7
:104EB0000400004030BCBDE8C08F816821F00101D2
:104EC000816000207047000030B50C784D78384B79
:104ED000E2B200EB4212012D24D0D2F8100B6FF396
:104EE0001200C2F8100BD2F8100B1840C2F8100BC9
:104EF000486908B188684861D2F8100B40F4002076
:104F0000C2F8100BD2F8100B8968C1F312010843E4
:104F1000C2F8100BD2F8000B40F00440C2F8000BAE
:104F2000002030BD4D69002DD2F8105932D06FF3FA
:104F30001205C2F81059D2F810591D40C2F8105984
:104F40004D698B689D4200D94B61D2F8103943F40A
:104F50000023C2F81039D2F810394D69C5F3120593
:104F600053EA0503C2F8103900EB4412D2F80039B5
:104F700043F00443C2F800394A69002AD0D0D0F87F
:104F80003428097801F00F03012199400A43C0F841
:104F90003428C5E71D40C2F81059D2F8103943F43F
:104FA0000023C2F81039D2F810396FF31203D9E791
:104FB000FFFF07E0016C0F4A914203D9D0F8001BB4
:104FC000002914DB0021C0F8101BD0F8101B41F49D
:104FD0000021C0F8101BD0F8101B41F01801C0F8D8
:104FE000101BD0F8101B41F0C041C0F8101B00206E
:104FF000704700000A30544F4A780B78012A00EBC2
:1050000043100BD0D0F8002B22F40012C0F8002B74
:10501000C978032914D0022912D017E0D0F800294A
:1050200022F40012C0F80029C978032901D002290E
:105030000CD1D0F8001941F08051C0F8001905E0FA
:10504000D0F8001B41F08051C0F8001B00207047D1
:105050000A784B78D1B200EB4110012B12D0D0F876
:10506000001B002906DB2AB1D0F8001B21F080418B
:10507000C0F8001BD0F8001B41F40011C0F8001B61
:1050800000207047D0F80019002906DB2AB1D0F8BB
:10509000001921F08041C0F80019D0F8001941F43E
:1050A0000011C0F80019EBE770B50D784E78624B2F
:1050B000EAB26FF0604400EB4212012E27D0D2F822
:1050C000105B6FF31205C2F8105BD2F8105B1D4045
:1050D000C2F8105B4D69002D73D08B681D446D1EA6
:1050E000B5FBF3F3D2F8105B9BB204EAC34425434B
:1050F000C2F8105BD2F8104B8D685D43C5F3120304
:105100001C43C2F8104BC97801296FD08CE04E695E
:105110001EB3D2F810696FF31206C2F81069D2F804
:1051200010691E40C2F810694E698B681E44761ED5
:10513000B6FBF3F304EAC343D2F810492343C2F8A1
:105140001039D2F810394C69C4F312042343C2F861
:105150001039CB78012B10D01BE0D2F810491C403D
:10516000C2F81049D2F8103943F40023C2F81039BC
:10517000D2F810396FF3120309E0D2F8103923F096
:10518000C043C2F81039D2F8103943F00053C2F8C6
:10519000103900EB4512D2F8003943F00443C2F84D
:1051A0000039CB78012B0DD04A697AB3D0F8342876
:1051B000097801F00F03012199400A43C0F834280F
:1051C00038E014E0D0F80838DB05D2F8003902D412
:1051D00043F0005301E043F08053C2F800398A8A5B
:1051E00093B20A78C96800F037F923E00FE0D2F8EB
:1051F000103B8C68C4F312042343C2F8103BD2F86E
:10520000103B43F40023C2F8103B7CE712E0D0F8D7
:105210000808C005D2F8000B02D440F0005001E0AD
:1052200040F08050C2F8000BD2F8000B40F0044070
:10523000C2F8000B002070BDFFFF07E0816841F05D
:105240000101816000207047002110220261054A9F
:10525000491C914201D9032070470369DB06F7D44A
:1052600000207047400D03000022202343EA8111F3
:1052700001610549521C8A4201D903207047036924
:105280009B06F7D400207047400D0300D0F80808B3
:1052900000F00600022803D0062801D00F20704736
:1052A00002207047406900F001007047D0F81818DC
:1052B000D0F81C08084080B27047D0F81818D0F811
:1052C0001C080840000C704710B5D0F81038D0F812
:1052D000342801F00F0400EB4110E24002F001021B
:1052E000D0F8080943EAC212104010BD00EB41118A
:1052F000D1F8081BD0F8140808407047416980694C
:1053000008407047D21C10B59308002200F5805069
:1053100002E00468521C10C19A42FAD3084610BD3C
:1053200010B5C26822F0C042C260012902D029B182
:10533000012010BDC16841F0005102E0C16841F098
:105340008041C1603220FBF7C9FB002010BDD0F8BE
:10535000002822F4FE62C0F80028D0F800284FF49C
:10536000FE6303EA01110A43C0F8002800207047D9
:10537000022A2ED1264A274B0A449A4201D20F21F3
:1053800038E0254A254B0A449A4201D20E2131E0E9
:10539000234A244B0A449A4201D20D212AE0224A90
:1053A000224B0A449A4201D20C2123E0204A214B8D
:1053B0000A449A4201D20B211CE01F4A1F4B0A44A7
:1053C0009A4201D20A2115E01D4A1E4B0A449A4214
:1053D00001D209210EE01C4A1C4B0A449A4201D218
:1053E000082107E01A4A11441A4A914201D20721C2
:1053F00000E00621C26822F47052C260C2684FF415
:10540000705303EA81210A43C26000207047000004
:10541000405327FF00350C00401E1BFF40420F0089
:1054200000DC0BFF804F1200808CF9FE20D61300A9
:1054300060B6E5FE60E3160000D3CEFE40771B00A9
:10544000C05BB3FEC091210000CA91FE20753800F8
:10545000E05459FEE09C410010B5DB1C9C0800EBB9
:105460000230002300F5805002E004C902605B1C9A
:10547000A342FAD3002010BD1CB506208DF804000D
:10548000FF200090012301AA70210248FBF72EFDA6
:105490001CBD0000DC010020FEE70907090E002802
:1054A00004DB00F1E02080F80014704700F00F00EA
:1054B00000F1E02080F8141D704702E008C8121FB8
:1054C00008C1002AFAD170477047002001E001C1ED
:1054D000121F002AFBD1704710B5002821D0114BB4
:1054E0000022001F196803E0814203D80A46496878
:1054F0000029F9D152B11368841A9C4204D1006882
:1055000018441060104602E0506000E0186039B1A5
:1055100002680B1A934203D10B681A44026049686F
:10552000416010BD88010020FBF7DCFDFEF746F965
:10553000FDF710FDFDF746FEFDF770FEFDF79AFE44
:10554000FDF7B6FEFDF7D2FEFDF7EEFEFDF70EFF0E
:10555000FDF72AFFFFF790FFFDF7B6FCFDF766FCAD
:10556000FEF71CF9FEF7FEF8FEF70AF9FEE7000069
:10557000F0B50B30154D20F007010024144A0FE060
:1055800003688B420BD38B4205D95E1A43184768D8
:10559000C3E9006700E04368136002C004E0021D35
:1055A00010680028ECD12046002802D1286808B1F4
:1055B0000020F0BD064A07481060074A121A22F080
:1055C0000702C0E9002401202860D7E78C010020F1
:1055D000880100205C2000205822002000000000EC
:1055E000000000000102030406070809A08601006C
:1055F000400D0300801A060000350C0040420F00E9
:1056000080841E0000093D0000127A000024F4008E
:1056100000366E010048E801006CDC02000000006A
:10562000010203044456000800000020900100001D
:10563000D40200080857000890010020C824000088
:10564000CA5400081381411B08B1041ABD041AE5AD
:10565000041311421B0861081A8D0417040309047E
:10566000120114020202164083044057260201026E
:105670000301031A1A031335031B0831041A2D04FE
:105680001A59041A7104193311821053093D130A6F
:105690000632022A401C1C0902435B1125C0320954
:1056A000041B01020B130524161001052401100927
:1056B0000104240202052406170107058203081CC1
:1056C00010090491320A1D07050102432C070581C8
:1056D000070938442A40072A8107112B0907440A81
:1056E0003B044413113F1408753E1408054042085A
:1056F0001ABD0C13E93D1B084B08C11AF9102AED1D
:085700002819309AE11C000099
:040000050800018965
:00000001FF
